:0400000080EF07F096
:100600000001020400417065727465203120706140
:1006100072612066617A6572206F2070656469641A
:100620006F2E00446573656A612070656469723F6E
:100630000020456E7669616E646F2E2E2E00426535
:10064000626964613A004C616E6368653A0031200A
:070650002D2053696D00002D
:10065800000E836E000E806E55C04DF056C04EF0F1
:10066800030E506EE80E4F6E12EC06F04D50576EAA
:10067800030E4A6EE80E496E55C047F056C048F062
:1006880054EC06F047C04DF048C04EF0000E506ED6
:10069800640E4F6E12EC06F04D50586E000E4A6E06
:1006A800640E496E55C047F056C048F054EC06F049
:1006B80047C04DF048C04EF0000E506E0A0E4F6E07
:1006C80012EC06F04D50596E55C047F056C048F030
:1006D800000E4A6E0A0E496E54EC06F047505A6EE8
:1006E800000E5C6E000E5B6E040E806E5750330F6A
:1006F800D96EDA6ADF50836E000E486E010E476EBF
:10070800C8EC07F0080E806E5850330FD96EDA6ABD
:10071800DF50836E000E486E010E476EC8EC07F07E
:10072800100E806E5950330FD96EDA6ADF50836E1F
:10073800000E486E010E476EC8EC07F0200E806E62
:100748005A50330FD96EDA6ADF50836E000E486E46
:10075800010E476EC8EC07F05B4A5C2A5CBEC4D742
:10076800080E5B5C070E5C58D8A0BED7000E806EE2
:100778001200000E536E000E526E000E556E81CFA1
:1007880054F06BD04F4A502A000E566E5650010F47
:10079800516E51C0F6FF060EF76E0800F550FF0ABD
:1007A800811283B60CD0000E486E0D0E476EC8EC51
:1007B80007F083B604D083A6FED756282CD083B47E
:1007C8000DD0000E486E0D0E476EC8EC07F083B4CE
:1007D80005D083A4FED75650040F1DD083B20DD088
:1007E800000E486E0D0E476EC8EC07F083B205D0B8
:1007F80083A2FED75650070F0ED083B00ED0000E3E
:10080800486E0D0E476EC8EC07F083B006D083A083
:10081800FED756500A0F556E0ED05650010F516E26
:1008280051C0F6FF060EF76E0800F5508116562ADD
:10083800020E5664ABD7000E486E040E476EC8EC25
:1008480007F0050E5226000E5322F40E4F1805E14C
:100858005004D8A402D0000E12004D50525C4E50E5
:100868005358D8A004D04D504E10D8A403D055509A
:10087800D8B488D75550D8B455680B0E5518D8A495
:1008880002D0000E556E54C081FF55501200000E64
:10089800556E060EC16E010E936E000E956E000E1B
:1008A800966E000E566EF80E936E1AD0010E43EC3B
:1008B80008F0460E536E5350D8A4060E546E87ECBB
:1008C80008F015D0010E43EC08F03E0E536E53505D
:1008D800D8A4060E546E87EC08F0010E556E07D0AA
:1008E8005650000AD8B4E2D7010AD8B4EBD70F0E95
:1008F800956E000E4E6E000E4D6ED2EC04F0300F69
:10090800576E000E956E030E486ED40E476EC8ECF7
:1009180007F03A0E5718D8B456EC07F03C0E5718A3
:10092800D8A420D05504D8A41DD0FEEC07F069EC5B
:1009380008F0310E536E5350D8A4060E546E87EC4F
:1009480008F0030E486ED40E476EC8EC07F0030E8D
:10095800486ED40E476EC8EC07F0FEEC07F0E4ECE6
:1009680007F0120057502EEC08F00FD00F0E956EBE
:10097800000E4E6E000E4D6ED2EC04F0300F576E26
:10098800000E956E57502EEC08F03C0E5718D8A460
:10099800EDD7180E43EC08F0562AA2D7000E516E78
:1009A800000E506E000E536E81CF52F061D0000ED3
:1009B800546E5450010F4F6E4FC0F6FF060EF76E7F
:1009C8000800F550FF0A811283B60CD0000E486E5D
:1009D8000D0E476EC8EC07F083B604D083A6FED789
:1009E80054282CD083B40DD0000E486E0D0E476EDF
:1009F800C8EC07F083B405D083A4FED75450040F85
:100A08001DD083B20DD0000E486E0D0E476EC8EC97
:100A180007F083B205D083A2FED75450070F0ED03B
:100A280083B00ED0000E486E0D0E476EC8EC07F06E
:100A380083B006D083A0FED754500A0F536E0ED051
:100A48005450010F4F6E4FC0F6FF060EF76E0800A8
:100A5800F5508116542A020E5464ABD7000E486E26
:100A6800040E476EC8EC07F0050E5026000E512202
:100A78004D50505C4E505158D8A004D04D504E1097
:100A8800D8A403D05350D8B492D75350D8B453688D
:100A98000B0E5318D8A402D0000E536E52C081FF1B
:100AA8005350120069EC08F020EE01F011EE00F04E
:100AB800310EDBCFE3FFE806FCE221EEC8F011EED1
:100AC80032F0310EDBCFE3FFE806FCE221EE96F0D0
:100AD80011EE64F0310EDBCFE3FFE806FCE239D01B
:100AE800010E43EC08F0000E536E010E546E87ECB5
:100AF80008F0050E536E79EC08F018EC08F0010EBA
:100B080043EC08F01200010E43EC08F0320E536E6D
:100B1800010E546E87EC08F0050E536E79EC08F060
:100B280018EC08F0010E43EC08F01200010E43EC3B
:100B380008F0640E536E010E546E87EC08F0050E33
:100B4800536E79EC08F018EC08F0010E43EC08F04D
:100B5800120055C057F056C058F05850000AD8A493
:100B680012005750000AD8B4BBD7010AD8B4CBD763
:100B7800030AD8A41200DAD7000E666E000E656E5E
:100B8800000E636E000E626E000E616E010E606EE6
:100B980093EC08F028EC07F0F80E936E000E646EE4
:100BA80065C047F066C048F0000E4A6E030E496EF5
:100BB80054EC06F047C05AF048C05BF058EC08F017
:100BC8005AC05EF05BC05FF05E045F10D8A402D02C
:100BD800010E646E6404D8A404D04BEC04F0624A9D
:100BE800632A65046610D8A416D0000E666E000E3F
:100BF800656E63BE10D0635003E16204D8A00BD0C9
:100C080060C055F061C056F02CEC03F0604A612AD0
:100C18006206D8A06306654A662AC0D7000E526EDF
:100C280050AE06D04F6C501ED8B0502A010E526EEE
:100C38004EAE06D04D6C4E1ED8B04E2A010E521A3A
:100C4800000E546E000E536E4F505010D8B41CD086
:100C5800010E516E04D0D8904F365036512A50AEFE
:100C6800FAD7D890533654364F504D5C50504E58A2
:100C7800D8A005D04F504D5E50504E5A5380D89052
:100C880050324F32512EEDD75250D8B404D0536C55
:100C9800541ED8B0542A53C04DF054C04EF0120020
:100CA800000E4C6E48AE06D0476C481ED8B0482A95
:100CB800010E4C6E4AAE04D0496C4A1ED8B04A2A7E
:100CC80049504A10D8B418D0010E4B6E04D0D890B1
:100CD80049364A364B2A4AAEFAD74950475C4A50F9
:100CE8004858D8A004D04950475E4A50485AD8902E
:100CF8004A3249324B2EF1D74C50D8B404D0476C05
:100D0800481ED8B0482A47C047F048C048F01200EB
:100D1800000E526E19D052504E24506E000E4F20C5
:100D2800516E50C0F6FF51C0F7FFF86A050EF76420
:100D380003D00800F55005D0F6CFE9FFF7CFEAFF5A
:100D4800EF502EEC08F0522A52504E24506E000EEE
:100D58004F20516E50C0F6FF51C0F7FFF86A050EDC
:100D6800F76403D00800F55005D0F6CFE9FFF7CFB8
:100D7800EAFFEF500009D8B41200CDD7060EC16EB5
:100D8800010E936E000E956E000E966E230E536E36
:100D98005350D8A4060E546E87EC08F04E0E536ECE
:100DA80079EC08F0F80E936E0F0E956E000E4E6EED
:100DB800000E4D6E000E506E000E4F6EBDEC03F02F
:100DC800300F596E000E956E310E5918D8A405D003
:100DD800000E586E010E576E1200000E586E000E6F
:100DE800576E120054454D50455241545552413AA0
:100DF80020313820430000000000000000000000FF
:100E080000000000000000000000000000000000DA
:100E1800000000000000434F43412D434F4C412048
:100E28003630304D4C3A205224362E3030000000F7
:100E380000000000000000000000000000000000AA
:100E4800000000000000000084928494000E486EA8
:100E5800140E476EC8EC07F08482380E43EC08F095
:100E6800000E486E050E476EC8EC07F0380E43ECCE
:100E780008F0000E486E010E476EC8EC07F0380EF9
:100E880043EC08F0080E43EC08F00F0E43EC08F0B2
:100E9800010E43EC08F0380E43EC08F0800E43ECEA
:100EA80008F01200C00E43EC08F0000E4E6E4E50D3
:100EB800010B2EEC08F0000E486E120E476EC8ECBF
:100EC80007F04E2A0F0E4E64F2D7800E43EC08F05E
:100ED800000E4E6E4E50010B2EEC08F0000E486EC0
:100EE800120E476EC8EC07F04E2A0F0E4E64F2D76A
:100EF800010E43EC08F01200EC0EF66E0D0EF76EC4
:100F0800000EF86E01EE96F010EE64F00900F5CFD1
:100F1800EEFFE550E150FAE14A0EF66E0F0EF76E5D
:100F2800000EF86E00EE01F010EE46F00900F5CF65
:100F3800EEFFE550E150FAE1000EF86E0001C0EF57
:100F480005F050524F4D4F43414F2120582D4241FB
:100F5800434F4E20504F5220522431322E30300011
:100F68000000000000000000000000000000000079
:100F7800000000003F065B4F666D7D077F6FD4035E
:100F8800910012000D000400000E4A6E000E496E1A
:100F980010D0000E4B6E08D0000E4C6E01D04C2ABB
:100FA800020E4C64FCD74B2A130E4B64F5D7494A02
:100FB8004A2A4750495C48504A58D8B01200E9D7E5
:100FC800C00E43EC08F0000E4E6E4E50010B2EEC96
:100FD80008F0000E486E910E476EC8EC07F04E2AD6
:100FE800130E4E64F2D7030E486ED40E476EC8EC4B
:100FF80007F01200800E43EC08F0000E4E6E4E50C3
:10100800010B2EEC08F0000E486E910E476EC8ECEE
:1010180007F04E2A0F0E4E64F2D7030E486ED40E18
:10102800476EC8EC07F01200000E4E6E000E486EB8
:10103800910E476EC8EC07F0180E43EC08F04E2AE4
:10104800310E4E64F3D7030E486ED40E476EC8ECCB
:1010580007F012004D6E84824D509EEC08F0848497
:10106800000E486E030E476EC8EC07F08492000E1F
:10107800486E030E476EC8EC07F0848212004D6E6E
:1010880084824D509EEC08F08494000E486E030E46
:10109800476EC8EC07F08492000E486E030E476E48
:1010A800C8EC07F0848212005AC055F05BC056F0B5
:1010B80056EC05F0C2EC06F057C05CF058C05DF085
:1010C8005CC05AF05DC05BF01200000E4E6E000E60
:1010D800486E910E476EC8EC07F0100E43EC08F00E
:1010E8004E2A0F0E4E64F3D7120069EC08F0C00EBA
:1010F80043EC08F053C04EF04E50D8A4060E4F6E85
:101108008CEC06F0120069EC08F0800E43EC08F055
:1011180053C04EF054C04FF08CEC06F01200060E8F
:10112800C16E000E956E000E966E010E936E000E47
:0C113800926E1200476E47C083FF120049
:020000040020DA
:08000000FFFFFFFFFFFFFFFF00
:020000040030CA
:0E000000FF021F00FF8381FF0FC00FE00F40C3
:00000001FF
